:020000040000FA
:100000000128831670308F008501860187018901E0
:10001000FF308800831286018701890108181128A2
:100020002028881816288A150A12002808191B2863
:100030008A110A16002888190E288A150A1600281F
:100040000030A500A50A6030A2002508A3000030FA
:10005000A4002308422085002408DD20860024080F
:10006000EE208700FF20A30AA40A86018701240846
:10007000103C031D2928A20B25282508803C031DC0
:10008000222820288207FF34FF34FF34FF34FF3456
:10009000FF34FF34FF34FF34FF34FF34FF34FF34C8
:1000A000FF34FF34FF34FF3401347F347F347F3436
:1000B0007F34FF3401346D346D346D346D34FF346E
:1000C000FD34FD340134FD34FD34FF34FD34F134AE
:1000D000FF34B3346D346D346D349B34FF34FF34EE
:1000E000FF34FD34FD340134FD34FD34FF3401347C
:1000F000ED34CD34AD347334FF34F934F7340F3488
:10010000F734F934FF34FF34FF340134ED34ED3487
:10011000ED34F334FF340134ED34CD34AD34733485
:10012000FF3483347D347D347D348334FF34833431
:100130007D346D346D348B34FF340134ED34CD3483
:10014000AD347334FF340334ED34ED34ED34033423
:10015000FF340134FB34F734FB340134FF347D3495
:1001600001347D34FF340134F734EF34DF340134AB
:10017000FF3483347D346D346D348B34FF3441343B
:10018000FF344134FF344134FF34FF34FF34FF3453
:10019000FF34FF34FF34FF34FF34FF34FF34FF34C7
:1001A000FF34FF34FF34FF34FF34FF34FF34FF34B7
:1001B000FF34FF34FF34FF34FF348207003400344F
:1001C000003400340034003400340034013402348C
:1001D000043408341034203440348034820701342D
:1001E0000234043408341034203440348034003471
:1001F000003400340034003400340034003405305E
:10020000A0000530A1000000A10B0329A00B0129CB
:020210000800E4
:101000000030A500A50A6030A2002508A30000302A
:10101000A4002308222085002408D5208600240867
:10102000E6208700F720A30AA40A86018701240886
:10103000103C031D0928A20B052825087F3C031D31
:10104000022800288207FF34FF34FF34FF34FF34C6
:10105000FF34FF34FF34FF34FF34FF34FF34FF34F8
:10106000FF34FF34FF34FF340134EF34EF34EF3416
:101070000134FF340334ED34ED34ED340334FF3404
:101080000134ED34ED34ED34F334FF340134ED3418
:10109000ED34ED34F334FF34F934F7340F34F734EE
:1010A000F934FF34FF34FF3401346D346D346D3462
:1010B0009334FF347D3401347D34FF340134ED3416
:1010C000CD34AD347334FF34FD34FD340134FD349C
:1010D000FD34FF340134EF34EF34EF340134FF34A6
:1010E00001347D347D347D348334FF340334ED3476
:1010F000ED34ED340334FF34F934F7340F34F7347E
:10110000F934FF34FF34FF34FD34FD340134FD3451
:10111000FD34FF3483347D347D347D348334FF34B7
:10112000FF34FF34F934F7340F34F734F934FF3433
:1011300083347D347D347D348334FF3481347F3493
:101140007F347F348134FF34FF34FF34FF34FF3485
:10115000FF34FF34FF34FF34FF34FF34FF34FF34F7
:10116000FF34FF34FF34FF34FF34FF34FF34FF34E7
:10117000FF34FF34FF34FF34FF34FF34FF34FF34D7
:10118000FF34FF34FF34FF34FF34FF34FF34FF34C7
:10119000FF34FF34FF34FF34FF34FF34FF34FF34B7
:1011A000FF34FF34FF34FF34FF348207003400344F
:1011B000003400340034003400340034013402348C
:1011C000043408341034203440348034820701342D
:1011D0000234043408341034203440348034003471
:1011E000003400340034003400340034003405305E
:1011F000A0000530A1000000A10BFB28A00BF928DE
:021200000800E4
:102000000030A500A50A6030A2002508A30000301A
:10201000A4002308222085002408DC208600240850
:10202000ED208700FE20A30AA40A86018701240868
:10203000103C031D0928A20B05282508A83C031DF8
:10204000022800288207FF34FF34FF34FF34FF34B6
:10205000FF34FF34FF34FF34FF34FF34FF34FF34E8
:10206000FF34FF34FF34FF340134EF34EF34EF3406
:102070000134FF3401346D346D346D346D34FF340C
:1020800001347F347F347F347F34FF3401347F3434
:102090007F347F347F34FF3483347D347D347D342A
:1020A0008334FF34FF34FF3401346D346D346D34C8
:1020B0006D34FF34C134BF347F34BF34C134FF3496
:1020C00001346D346D346D346D34FF340134ED34CE
:1020D000CD34AD347334FF34F934F7340F34F7347E
:1020E000F934FF3483347D347D347D348334FF34DC
:1020F0000134F734EF34DF340134FF3401346D340C
:102100006D346D346D34FF347F34FF34FF3401346B
:10211000EF34EF34EF340134FF3483347D347D34D5
:102120007D348334FF3481347F349F347F34813471
:10213000FF34FF34FF340734DB34DD34DB34073461
:10214000FF340134ED34CD34AD347334FF34013415
:102150006D346D346D346D34FF34FF34FF34F93435
:10216000F7340F34F734F934FF3483347D347D345D
:102170007D348334FF3481347F347F347F34813441
:10218000FF34F334FD344D34ED34F334FF34FF3495
:10219000FF34FF34FF34FF34FF34FF34FF34FF34A7
:1021A000FF34FF34FF34FF34FF34FF34FF34FF3497
:1021B000FF34FF34FF34FF3482070034003400342E
:1021C0000034003400340034003401340234043468
:1021D000083410342034403480348207013402340F
:1021E0000434083410342034403480340034003453
:1021F0000034003400340034003400340530A000D2
:102200000530A1000000A10B0229A00B0029080045
:103000000030A500A50A6030A2002508A30000300A
:10301000A4002308222085002408CD20860024084F
:10302000DE208700EF20A30AA40A86018701240876
:10303000103C031D0928A20B05282508993C031DF7
:10304000022800288207FF34FF34FF34FF34FF34A6
:10305000FF34FF34FF34FF34FF34FF34FF34FF34D8
:10306000FF34FF34FF34FC34FC348034DF34E33489
:10307000FB34FF348734F834E734F8348734FF34D2
:103080008034B634B634B634B634FF348034FE34CB
:10309000FE34FE34FE34FF34C134BE34BE34BE349C
:1030A000DD34FF34C134BE34BE34BE34C134FF34E9
:1030B0008034DF34EF34DF348034FF348034B6348E
:1030C000B634B634B634FF34FF34FF34BF34BF34C3
:1030D0008034BF34BF34FF34C134BE34BE34BE3458
:1030E000C134FF34FF34FF34BF34BF348034BF34C5
:1030F000BF34FF348034F734F734F7348034FF348E
:103100008034B634B634B634B634FF34FF34FF34CA
:103110008034DF34EF34DF348034FF348134FE34E4
:10312000FE34FE348134FF34CD34B634B634B63494
:10313000D934FF34BE348034BE34FF34C134BE349D
:10314000BE34BE34DD34FF34FF34FF34C134BE340A
:10315000BE34BE34DD34FF348034FE34FE34FE34FD
:10316000FE34FF348134FE34FE34FE348134FF34C7
:103170008034B634B634B634C934FF34FF34FF3447
:10318000FF34FF34FF34FF34FF34FF34FF34FF34A7
:10319000FF34FF34FF34FF34FF348207803440347F
:1031A0002034103408340434023401340034003440
:1031B000003400340034003400340034820700341A
:1031C00000340034003400340034003400348034DF
:1031D00040342034103408340434023401340530CF
:1031E000A0000530A1000000A10BF328A00BF128DE
:0231F0000800D5
:02400E00C42FBD
:02401000FF3E71
:00000001FF
